{
  "contractName": "StarNotary",
  "abi": [
    {
      "inputs": [],
      "stateMutability": "nonpayable",
      "type": "constructor"
    },
    {
      "anonymous": false,
      "inputs": [
        {
          "indexed": false,
          "internalType": "address",
          "name": "owner",
          "type": "address"
        }
      ],
      "name": "starClaimed",
      "type": "event"
    },
    {
      "inputs": [],
      "name": "starName",
      "outputs": [
        {
          "internalType": "string",
          "name": "",
          "type": "string"
        }
      ],
      "stateMutability": "view",
      "type": "function",
      "constant": true
    },
    {
      "inputs": [],
      "name": "starOwner",
      "outputs": [
        {
          "internalType": "address",
          "name": "",
          "type": "address"
        }
      ],
      "stateMutability": "view",
      "type": "function",
      "constant": true
    },
    {
      "inputs": [],
      "name": "claimStar",
      "outputs": [],
      "stateMutability": "nonpayable",
      "type": "function"
    }
  ],
  "bytecode": "0x608060405234801561001057600080fd5b506040518060400160405280601481526020017f417765736f6d65205564616369747920537461720000000000000000000000008152506000908051906020019061005c929190610062565b50610166565b82805461006e90610134565b90600052602060002090601f01602090048101928261009057600085556100d7565b82601f106100a957805160ff19168380011785556100d7565b828001600101855582156100d7579182015b828111156100d65782518255916020019190600101906100bb565b5b5090506100e491906100e8565b5090565b5b808211156101015760008160009055506001016100e9565b5090565b7f4e487b7100000000000000000000000000000000000000000000000000000000600052602260045260246000fd5b6000600282049050600182168061014c57607f821691505b602082108114156101605761015f610105565b5b50919050565b610368806101756000396000f3fe608060405234801561001057600080fd5b50600436106100415760003560e01c806388d5896c14610046578063a434c27214610064578063c5946ae014610082575b600080fd5b61004e61008c565b60405161005b9190610253565b60405180910390f35b61006c61011a565b60405161007991906102b6565b60405180910390f35b61008a610140565b005b6000805461009990610300565b80601f01602080910402602001604051908101604052809291908181526020018280546100c590610300565b80156101125780601f106100e757610100808354040283529160200191610112565b820191906000526020600020905b8154815290600101906020018083116100f557829003601f168201915b505050505081565b600160009054906101000a900473ffffffffffffffffffffffffffffffffffffffff1681565b33600160006101000a81548173ffffffffffffffffffffffffffffffffffffffff021916908373ffffffffffffffffffffffffffffffffffffffff1602179055507feb7b62b344bb3f85b6845f47ddc7878c8fc9946b9c4a4aacbd5274c883e9b66a336040516101b091906102b6565b60405180910390a1565b600081519050919050565b600082825260208201905092915050565b60005b838110156101f45780820151818401526020810190506101d9565b83811115610203576000848401525b50505050565b6000601f19601f8301169050919050565b6000610225826101ba565b61022f81856101c5565b935061023f8185602086016101d6565b61024881610209565b840191505092915050565b6000602082019050818103600083015261026d818461021a565b905092915050565b600073ffffffffffffffffffffffffffffffffffffffff82169050919050565b60006102a082610275565b9050919050565b6102b081610295565b82525050565b60006020820190506102cb60008301846102a7565b92915050565b7f4e487b7100000000000000000000000000000000000000000000000000000000600052602260045260246000fd5b6000600282049050600182168061031857607f821691505b6020821081141561032c5761032b6102d1565b5b5091905056fea264697066735822122029617ef03cb26278d56d8642e05fc5617e0249d7ce5b36ab456ac8acbca147e464736f6c634300080a0033",
  "immutableReferences": {},
  "source": "// SPDX-License-Identifier: MIT\npragma solidity >=0.4.24;\n\ncontract StarNotary {\n\n    string public starName;\n    address public starOwner;\n\n    event starClaimed(address owner);\n\n    constructor()  {\n        starName = \"Awesome Udacity Star\";\n    }\n\n    function claimStar() public {\n        starOwner = msg.sender;\n        emit starClaimed(msg.sender);\n    }\n\n}",
  "sourcePath": "C:\\Data\\Code\\UdemyBlockchainDeveloper\\TruffleSmartContract\\contracts\\starNotary.sol",
  "compiler": {
    "name": "solc",
    "version": "0.8.10+commit.fc410830.Emscripten.clang"
  },
  "schemaVersion": "3.4.3",
  "updatedAt": "2022-01-09T10:38:56.931Z",
  "networkType": "ethereum",
  "devdoc": {
    "kind": "dev",
    "methods": {},
    "version": 1
  },
  "userdoc": {
    "kind": "user",
    "methods": {},
    "version": 1
  }
}